:020000040800F2
:1000000000200020DD0200082D0300082D03000859
:1000100000000000000000000000000000000000E0
:100020000000000000000000000000002D03000898
:100030002D030008000000002D0300082D03000818
:100040002D0300082D0300082D0300082D030008D0
:100050002D0300082D0300082D0300082D030008C0
:10006000000000002D0300082D0300082D030008E8
:100070002D0300082D030008000000002D030008D8
:10008000000000002D030008000000000000000038
:100090002D030008000000002D0300082D030008B8
:1000A0002D0300082D0300082D0300082D03000870
:1000B0002D0300082D0300080000000000000000D0
:1000C00010B5064C2378002B07D1054B002B02D02E
:1000D000044800E000BF0123237010BD5804002035
:1000E00000000000E0050008084B10B5002B03D00D
:1000F0000749084800E000BF07480368002B00D10B
:1001000010BD064B002BFBD09847F9E7000000001C
:100110005C040020E00500085404002000000000FA
:1001200080B500AFFEE7C04680B500AF174B174A59
:100130001268802149000A431A60144B134AD2689E
:1001400013490A40DA60114B104A126811490A40FB
:100150001A600E4B0D4A926801218A439A600B4B3C
:100160000A4A12680C490A401A60084B074AD268CA
:100170000A490A40DA60054B00221A61084B8022C6
:1001800012059A60C046BD4680BDC04600100240C0
:100190000C40FF88F6FFF6FEFFFFFBFFFFFF02FFAC
:1001A00000ED00E080B586B000AF00237B61002346
:1001B0003B610023FB600023BB6000237B60414B5D
:1001C000DB680C2213407B617B69042B16D002D8BC
:1001D000002B05D051E0082B14D00C2B16D04CE08E
:1001E000384B5A68E0231B0213405B0BFA221202C1
:1001F0009A4013001A00344B1A604FE0324B334AD6
:100200001A604BE0304B324A1A6047E02D4BDA68F7
:10021000F0239B0313403B612A4BDA68C0231B0485
:100220001340FB603B699B0C2A4AD35CDBB23B6109
:10023000FB689B0D0133FB60224BDA6880235B0275
:100240001340BB60BB68002B0BD13B691F4A534373
:10025000F968180000F06CF803001A001A4B1A60D5
:100260001CE03B691A4A5343F968180000F060F833
:1002700003001A00144B1A6010E0124B5A68E02376
:100280001B0213405B0B7B607B68013380221202F0
:100290009A4013001A000C4B1A60C046094BDB68E9
:1002A000F02213401B090C4AD35CDBB27B61064B86
:1002B0001A687B69DA40044B1A60C046BD4606B036
:1002C00080BDC04600100240000000200024F40061
:1002D00000127A0014000020040000200D4885461A
:1002E000002103E00C4B5B58435004310B480C4B8E
:1002F00042189A42F6D30B4A02E0002313600432FC
:10030000094B9A42F9D3FFF70FFF00F09DF8FFF772
:1003100007FFFEE700200020E005000800000020A5
:10032000580400205804002074040020FEE7000058
:10033000002243088B4274D303098B425FD3030A24
:100340008B4244D3030B8B4228D3030C8B420DD337
:10035000FF22090212BA030C8B4202D312120902C5
:1003600065D0030B8B4219D300E0090AC30B8B4203
:1003700001D3CB03C01A5241830B8B4201D38B03B1
:10038000C01A5241430B8B4201D34B03C01A524156
:10039000030B8B4201D30B03C01A5241C30A8B4299
:1003A00001D3CB02C01A5241830A8B4201D38B0284
:1003B000C01A5241430A8B4201D34B02C01A524128
:1003C000030A8B4201D30B02C01A5241CDD2C3099A
:1003D0008B4201D3CB01C01A524183098B4201D316
:1003E0008B01C01A524143098B4201D34B01C01A01
:1003F000524103098B4201D30B01C01A5241C30879
:100400008B4201D3CB00C01A524183088B4201D3E7
:100410008B00C01A524143088B4201D34B00C01AD3
:100420005241411A00D20146524110467047FFE73F
:1004300001B5002000F006F802BDC0460029F7D043
:1004400076E770477047C04670B50D4E0D4D0024DD
:10045000AD1BAD1005D0A300F35801349847A54259
:10046000F9D100F0ADF8084E084D0024AD1BAD10D9
:1004700005D0A300F35801349847A542F9D170BDC7
:1004800048040020480400204804002050040020B4
:10049000034B10B5002B02D0024800F005F810BD48
:1004A00000000000B904000810B50100002300227C
:1004B000002000F01BF810BD70B5094B094CE41A80
:1004C000A41009D0084AA518AD00ED182B68013C0E
:1004D0009847043D002CF9D100F078F870BDC04673
:1004E0005004002054040020FFFFFF3FF8B54446AD
:1004F0005F4656464D469B462F4BF0B41C68A423DE
:100500005B000500E0580E00904600284BD0436881
:100510001F2B0DDC5C1C002D21D102339B0044609D
:100520001E5000203CBC90469946A246AB46F8BD02
:10053000224B002B3CD0C820400000E000BF002828
:1005400036D0A42200235200A15843600160A0507D
:1005500040328350043283500124002DDDD09A00B4
:1005600091468144424688214F467A50C422520027
:100570009046804442468739994012688A460A4329
:100580009446424661461160842249465F465200C5
:100590008F50022DC1D1020055468D32FF321168B5
:1005A0000D431560B9E720004D30FF30E050AEE755
:1005B00001204042B6E7C046DC050008000000000C
:1005C000F8B5C046F8BC08BC9E467047F8B5C046B2
:1005D000F8BC08BC9E467047430000002000002085
:1005E00080841E00000000000000000001020304DF
:1005F00006070809030406080C1018203000000044
:10060000000000000C03002074030020DC03002025
:1006100000000000000000000000000000000000DA
:1006200000000000000000000000000000000000CA
:1006300000000000D80500080000000000000000D5
:1006400000000000000000000000000000000000AA
:10065000000000000000000000000000000000009A
:10066000000000000000000000000000000000008A
:10067000000000000000000000000000000000007A
:10068000000000000000000000000000000000006A
:10069000000000000000000000000000000000005A
:1006A0000000000000000000010000000000000049
:1006B0000E33CDAB34126DE6ECDE05000B0000000E
:1006C000000000000000000000000000000000002A
:1006D000000000000000000000000000000000001A
:1006E000000000000000000000000000000000000A
:1006F00000000000000000000000000000000000FA
:100A2000000000000000000091040008E900000838
:080A3000C100000800000000F5
:0400000508000000EF
:00000001FF
